{
  "contractName": "PriceConsumer",
  "abi": [
    {
      "inputs": [],
      "stateMutability": "nonpayable",
      "type": "constructor"
    },
    {
      "inputs": [
        {
          "internalType": "address",
          "name": "_contractAddress",
          "type": "address"
        }
      ],
      "name": "getLatestPrice",
      "outputs": [
        {
          "internalType": "int256",
          "name": "",
          "type": "int256"
        }
      ],
      "stateMutability": "view",
      "type": "function",
      "constant": true
    }
  ],
  "bytecode": "0x608060405234801561001057600080fd5b5061014d806100206000396000f3fe608060405234801561001057600080fd5b506004361061002b5760003560e01c806316345f1814610030575b600080fd5b6100726004803603602081101561004657600080fd5b81019080803573ffffffffffffffffffffffffffffffffffffffff169060200190929190505050610088565b6040518082815260200191505060405180910390f35b6000808290508073ffffffffffffffffffffffffffffffffffffffff166350d25bcd6040518163ffffffff1660e01b815260040160206040518083038186803b1580156100d457600080fd5b505afa1580156100e8573d6000803e3d6000fd5b505050506040513d60208110156100fe57600080fd5b810190808051906020019092919050505091505091905056fea264697066735822122080f3f2229b090aac76e7296e0af9da94af8441817d10361a774f130baaea591e64736f6c63430006000033",
  "source": "/**\r\n * Using the ETH/USD Price Feed: https://feeds.chain.link/eth-usd\r\n */\r\n\r\npragma solidity ^0.6.0;\r\n\r\nimport \"./PriceOracleFactory.sol\";\r\n\r\ncontract PriceConsumer {\r\n\r\n    constructor() public {\r\n    }\r\n\r\n    function getLatestPrice(address _contractAddress) public view returns (int256) {\r\n        PriceOracle priceFeed = PriceOracle(_contractAddress);\r\n        return priceFeed.latestAnswer();\r\n    }\r\n}",
  "sourcePath": "D:/Bayro/ahoj-swap/contracts/PriceConsumer.sol",
  "compiler": {
    "name": "solc",
    "version": "0.6.0+commit.26b70077.Emscripten.clang"
  },
  "schemaVersion": "3.3.2",
  "updatedAt": "2020-12-13T03:38:47.710Z",
  "networkType": "ethereum",
  "devdoc": {
    "methods": {}
  },
  "userdoc": {
    "methods": {}
  }
}