{
  "contractName": "PriceOracleFactory",
  "abi": [
    {
      "inputs": [],
      "stateMutability": "nonpayable",
      "type": "constructor"
    },
    {
      "anonymous": false,
      "inputs": [
        {
          "indexed": true,
          "internalType": "address",
          "name": "oracleAddress",
          "type": "address"
        }
      ],
      "name": "OracleCreated",
      "type": "event"
    },
    {
      "inputs": [
        {
          "internalType": "int256",
          "name": "_price",
          "type": "int256"
        },
        {
          "internalType": "string",
          "name": "_name",
          "type": "string"
        }
      ],
      "name": "newPriceOracle",
      "outputs": [
        {
          "internalType": "address",
          "name": "",
          "type": "address"
        }
      ],
      "stateMutability": "nonpayable",
      "type": "function"
    },
    {
      "inputs": [],
      "name": "getOracles",
      "outputs": [
        {
          "internalType": "address[]",
          "name": "",
          "type": "address[]"
        }
      ],
      "stateMutability": "nonpayable",
      "type": "function"
    }
  ],
  "bytecode": "0x608060405234801561001057600080fd5b50610797806100206000396000f3fe608060405234801561001057600080fd5b50600436106100365760003560e01c806340884c521461003b5780636e54cf9b1461009a575b600080fd5b61004361019f565b6040518080602001828103825283818151815260200191508051906020019060200280838360005b8381101561008657808201518184015260208101905061006b565b505050509050019250505060405180910390f35b61015d600480360360408110156100b057600080fd5b8101908080359060200190929190803590602001906401000000008111156100d757600080fd5b8201836020820111156100e957600080fd5b8035906020019184600183028401116401000000008311171561010b57600080fd5b91908080601f016020809104026020016040519081016040528093929190818152602001838380828437600081840152601f19601f82011690508083019250505050505050919291929050505061022d565b604051808273ffffffffffffffffffffffffffffffffffffffff1673ffffffffffffffffffffffffffffffffffffffff16815260200191505060405180910390f35b6060600080548060200260200160405190810160405280929190818152602001828054801561022357602002820191906000526020600020905b8160009054906101000a900473ffffffffffffffffffffffffffffffffffffffff1673ffffffffffffffffffffffffffffffffffffffff16815260200190600101908083116101d9575b5050505050905090565b600080838360405161023e90610383565b8083815260200180602001828103825283818151815260200191508051906020019080838360005b83811015610281578082015181840152602081019050610266565b50505050905090810190601f1680156102ae5780820380516001836020036101000a031916815260200191505b509350505050604051809103906000f0801580156102d0573d6000803e3d6000fd5b5090506000819080600181540180825580915050600190039060005260206000200160009091909190916101000a81548173ffffffffffffffffffffffffffffffffffffffff021916908373ffffffffffffffffffffffffffffffffffffffff1602179055508073ffffffffffffffffffffffffffffffffffffffff167f5dba83b2e4f5ef7ead6ae8f4902f5335ce28561a5207952f0b0a9d9f3a01a1b760405160405180910390a28091505092915050565b6103d1806103918339019056fe608060405234801561001057600080fd5b506040516103d13803806103d18339818101604052604081101561003357600080fd5b81019080805190602001909291908051604051939291908464010000000082111561005d57600080fd5b8382019150602082018581111561007357600080fd5b825186600182028301116401000000008211171561009057600080fd5b8083526020830192505050908051906020019080838360005b838110156100c45780820151818401526020810190506100a9565b50505050905090810190601f1680156100f15780820380516001836020036101000a031916815260200191505b5060405250505081600081905550806001908051906020019061011592919061011d565b5050506101c2565b828054600181600116156101000203166002900490600052602060002090601f016020900481019282601f1061015e57805160ff191683800117855561018c565b8280016001018555821561018c579182015b8281111561018b578251825591602001919060010190610170565b5b509050610199919061019d565b5090565b6101bf91905b808211156101bb5760008160009055506001016101a3565b5090565b90565b610200806101d16000396000f3fe608060405234801561001057600080fd5b50600436106100415760003560e01c806317d7de7c1461004657806350d25bcd146100c9578063f7a30806146100e7575b600080fd5b61004e610115565b6040518080602001828103825283818151815260200191508051906020019080838360005b8381101561008e578082015181840152602081019050610073565b50505050905090810190601f1680156100bb5780820380516001836020036101000a031916815260200191505b509250505060405180910390f35b6100d16101b7565b6040518082815260200191505060405180910390f35b610113600480360360208110156100fd57600080fd5b81019080803590602001909291905050506101c0565b005b606060018054600181600116156101000203166002900480601f0160208091040260200160405190810160405280929190818152602001828054600181600116156101000203166002900480156101ad5780601f10610182576101008083540402835291602001916101ad565b820191906000526020600020905b81548152906001019060200180831161019057829003601f168201915b5050505050905090565b60008054905090565b806000819055505056fea264697066735822122060bfc0d8049e014912d792c17ed93f178fc0f3cba4e6b7464edf0bedc57b1d9d64736f6c63430006000033a2646970667358221220874f9f90155a36c565d57e082ac1ff4a18b39ce8c77f7b61de02c0304467a45564736f6c63430006000033",
  "source": "pragma solidity ^0.6.0;\r\n// Modify to make it Ownable\r\n\r\ncontract PriceOracleFactory {\r\n\r\n    address[] private oracles;\r\n\r\n    event OracleCreated(address indexed oracleAddress);\r\n    constructor() public {\r\n    }\r\n\r\n    function newPriceOracle(int _price, string memory _name) public returns (address) {\r\n        PriceOracle oracle = (new PriceOracle(_price, _name));\r\n        oracles.push(address(oracle));\r\n        emit OracleCreated(address(oracle));\r\n        return address(oracle);\r\n    }\r\n\r\n    function getOracles() public returns (address[] memory) {\r\n        return oracles;\r\n    }\r\n}\r\n\r\ncontract PriceOracle {\r\n\r\n    int private price;\r\n    string private name;\r\n    constructor(int _price, string memory _name) public {\r\n        price = _price;\r\n        name = _name;\r\n    }\r\n\r\n    /**\r\n     * Returns the latest price\r\n     */\r\n    function latestAnswer() public view returns (int) {\r\n        return price;\r\n    }\r\n\r\n    function setPrice(int _price) public { //Modify so only Owner can change price\r\n        price = _price;\r\n    }\r\n\r\n    function getName() public view returns (string memory) {\r\n        return name;\r\n    }\r\n}",
  "sourcePath": "D:\\Bayro\\ahoj-swap\\contracts\\PriceOracleFactory.sol",
  "compiler": {
    "name": "solc",
    "version": "0.6.0+commit.26b70077.Emscripten.clang"
  },
  "schemaVersion": "3.3.2",
  "updatedAt": "2020-12-13T03:38:47.707Z",
  "networkType": "ethereum",
  "devdoc": {
    "methods": {}
  },
  "userdoc": {
    "methods": {}
  }
}